:020000040000fa
:080000000001040000000000f3
:020000040000fa
:04000800ac02000046
:020000040000fa
:04000c00ee02000000
:020000040000fa
:040010002e030000bb
:020000040000fa
:04001400cc0200001a
:020000040000fa
:040018000e030000d3
:020000040000fa
:04001c00d603000007
:020000040000fa
:04002000d603000003
:020000040000fa
:04002400d6030000ff
:020000040000fa
:04002800d6030000fb
:020000040000fa
:04002c00d6030000f7
:020000040000fa
:04003000d6030000f3
:020000040000fa
:04003400d6030000ef
:020000040000fa
:04003800d6030000eb
:020000040000fa
:04003c00d6030000e7
:020000040000fa
:04004000d6030000e3
:020000040000fa
:04004400d6030000df
:020000040000fa
:04004800d6030000db
:020000040000fa
:04004c00d6030000d7
:020000040000fa
:04005000d6030000d3
:020000040000fa
:040054004e03000057
:020000040000fa
:04005800d6030000cb
:020000040000fa
:04005c00d6030000c7
:020000040000fa
:04006000d6030000c3
:020000040000fa
:04006400d6030000bf
:020000040000fa
:040068008e02000004
:020000040000fa
:04006c00700200001e
:020000040000fa
:04007000d6030000b3
:020000040000fa
:04007400d6030000af
:020000040000fa
:04007800aa030000d7
:020000040000fa
:04007c00d6030000a7
:020000040000fa
:04008000d6030000a3
:020000040000fa
:04008400d60300009f
:020000040000fa
:04008800d60300009b
:020000040000fa
:04008c00d603000097
:020000040000fa
:04009000d603000093
:020000040000fa
:04009400d60300008f
:020000040000fa
:04009800d60300008b
:020000040000fa
:04009c00d603000087
:020000040000fa
:0400a000d603000083
:020000040000fa
:0400a400d60300007f
:020000040000fa
:0400a800d60300007b
:020000040000fa
:0400ac00d603000077
:020000040000fa
:0400b000d603000073
:020000040000fa
:0400b400d60300006f
:020000040000fa
:0400b800d60300006b
:020000040000fa
:0400bc00d603000067
:020000040000fa
:0400c000d603000063
:020000040000fa
:0400c400d60300005f
:020000040000fa
:0400c800d60300005b
:020000040000fa
:0400cc00d603000057
:020000040000fa
:0400d000d603000053
:020000040000fa
:0400d400d60300004f
:020000040000fa
:0400d800d60300004b
:020000040000fa
:0400dc00d603000047
:020000040000fa
:0400e000d603000043
:020000040000fa
:0400e400d60300003f
:020000040000fa
:0400e800d60300003b
:020000040000fa
:0400ec00d603000037
:020000040000fa
:0400f000d603000033
:020000040000fa
:0400f400d60300002f
:020000040000fa
:0400f800d60300002b
:020000040000fa
:0400fc00d603000027
:020000040000fa
:04010000d603000022
:020000040000fa
:04010400d60300001e
:020000040000fa
:04010800d60300001a
:020000040000fa
:04010c00d603000016
:020000040000fa
:04011000d603000012
:020000040000fa
:04011400d60300000e
:020000040000fa
:04011800d60300000a
:020000040000fa
:04011c00d603000006
:020000040000fa
:04012000d603000002
:020000040000fa
:04012400d6030000fe
:020000040000fa
:04012800d6030000fa
:020000040000fa
:04012c008603000046
:020000040000fa
:04013000d6030000f2
:020000040000fa
:04013400d6030000ee
:020000040000fa
:04013800d6030000ea
:020000040000fa
:04013c00d6030000e6
:020000040000fa
:04014000d6030000e2
:020000040000fa
:04014400d6030000de
:020000040000fa
:04014800d6030000da
:020000040000fa
:04014c00d6030000d6
:020000040000fa
:04015000d6030000d2
:020000040000fa
:04015400d6030000ce
:020000040000fa
:04015800d6030000ca
:020000040000fa
:04015c00d6030000c6
:020000040000fa
:04016000d6030000c2
:020000040000fa
:04016400d6030000be
:020000040000fa
:04016800d6030000ba
:020000040000fa
:04016c00d6030000b6
:020000040000fa
:04017000d6030000b2
:020000040000fa
:04017400d6030000ae
:020000040000fa
:04017800d6030000aa
:020000040000fa
:04017c00d6030000a6
:020000040000fa
:04018000d6030000a2
:020000040000fa
:04018400d60300009e
:020000040000fa
:04018800d60300009a
:020000040000fa
:04018c00d603000096
:020000040000fa
:04019000d603000092
:020000040000fa
:04019400d60300008e
:020000040000fa
:04019800d60300008a
:020000040000fa
:04019c00d603000086
:020000040000fa
:0401a000d603000082
:020000040000fa
:0401a400d60300007e
:020000040000fa
:0401a800d60300007a
:020000040000fa
:0401ac00d603000076
:020000040000fa
:0401b000d603000072
:020000040000fa
:0401b400d60300006e
:020000040000fa
:0401b800d60300006a
:020000040000fa
:0401bc00d603000066
:020000040000fa
:0401c000d603000062
:020000040000fa
:0401c400d60300005e
:020000040000fa
:0401c800d60300005a
:020000040000fa
:0401cc00d603000056
:020000040000fa
:0401d000d603000052
:020000040000fa
:0401d400d60300004e
:020000040000fa
:0401d800d60300004a
:020000040000fa
:0401dc00d603000046
:020000040000fa
:0401e000d603000042
:020000040000fa
:0401e400d60300003e
:020000040000fa
:0401e800d60300003a
:020000040000fa
:0401ec00d603000036
:020000040000fa
:0401f000d603000032
:020000040000fa
:0401f400d60300002e
:020000040000fa
:0401f800d60300002a
:020000040000fa
:0401fc00d603000026
:020000040000fa
:100200008f9420000e7f24000e0188000000000063
:10021000000020000000e000020032000001200089
:100220002002880014000700620107000000e000bf
:1002300003003a0080b322000100200002003700d2
:100240000000200001002000810f7000010032003a
:1002500014000700000020000000e000020032004f
:100260000000020000000000a420020000000000c6
:100270000040da000000fe004440a900c013200046
:100280000000e00003003200002020009001880000
:100290004440a800000006008a1f78008b1f7800e9
:1002a00000000600a1028800800478000000eb0036
:1002b0001f003700e284440054a0b4009905ba003e
:1002c000e284440054a0b4009906ba00e2844400d9
:1002d00054a0b4000006eb00476fde00fd07b2003b
:1002e000ae018800636ce10003003a00eaff0700fa
:1002f0000000eb000e003700606ce10008003a00df
:10030000004deb000a05e800020039003420ec0043
:100310000af0a0008b05e900f9ff3e000400370059
:100320006168e100010032000086eb000b0007006d
:1003300019c7ba001905ba000e04e00003003a001c
:100340000a00e000dbff3a0000000600fe07b200f2
:10035000ae0288008a047800f5ff37000cd0a300b5
:10036000e20f4d001c00390089027800354dba00bb
:100370000a05e800020039003420ec000af0a00071
:100380008b05e9000f003200254dba000a05e80090
:10039000020039003420ec000af0a0008b05e900cf
:1003a000080032000c00e0000600320015cdba0053
:1003b0000a05e800020039003420ec000af0a00031
:1003c0008b05e9008984e80054a0b4000b00e0002c
:1003d000e2ff3a00000006009902ba00055d7800cd
:1003e0008b05e900f7ff3200c82ade00055d7800c2
:1003f0008b05e900f3ff32000c00e000f1ff320052
:1004000019ddba00eeff3700000000000000000018
:1004100000000000000000000000000000000000dc
:1004200000000000000000000000000000000000cc
:1004300000000000000000000000000000000000bc
:1004400000000000000000000000000000000000ac
:10045000000000000000000000000000000000009c
:10046000000000000000000000000000000000008c
:10047000000000000000000000000000000000007c
:10048000000000000000000000000000000000006c
:10049000000000000000000000000000000000005c
:1004a000000000000000000000000000000000004c
:1004b000000000000000000000000000000000003c
:1004c000000000000000000000000000000000002c
:1004d000000000000000000000000000000000001c
:1004e0003600f800809fbe00829fbe00849fbe0041
:1004f000869fbe000000fa006041800000000100fd
:100500000080fa004f03be004f02be004f01be0044
:100510004f00be003600f900004006003600f8002b
:10052000809fbe00829fbe00849fbe00869fbe004b
:100530000000fa0070418000000001000080fa0015
:100540004f03be004f02be004f01be004f00be0071
:100550003600f900004006003600f800809fbe001b
:10056000829fbe00849fbe00869fbe000000fa00ee
:100570008020a9000000eb00c81407000080fa00ea
:100580004f03be004f02be004f01be004f00be0031
:100590003600f900004006003600f800809fbe00db
:1005a000829fbe00849fbe00869fbe000000fa00ae
:1005b000c11407008040a90010002000b7140700f4
:1005c0000080fa004f03be004f02be004f01be0084
:1005d0004f00be003600f900004006003600f8006b
:1005e000809fbe00829fbe00849fbe00869fbe008b
:1005f0000000fa008060a90020002000a714070076
:100600000080fa004f03be004f02be004f01be0043
:100610004f00be003600f900004006003600f8002a
:10062000809fbe00829fbe00849fbe00869fbe004a
:100630000000fa008080a900300020009714070015
:100640000080fa004f03be004f02be004f01be0003
:100650004f00be003600f900004006003600f800ea
:10066000809fbe00829fbe00849fbe00869fbe000a
:100670000000fa008600a90070002000871407001f
:100680000080fa004f03be004f02be004f01be00c3
:100690004f00be003600f90000400600809fbe00fb
:1006a000821f78000200fa008960a9000f0037005d
:1006b000004080008000e800f0072000008f60000c
:1006c000104080009e007800808f500007003200ac
:1006d00000408000f11c800001417800618320000f
:1006e000827078009e00780001408800d01c800055
:1006f000610060000000e000edff3a000080fa00b9
:100700004f0178004f00be0000400600801f7800b7
:100710000200fa00d01c8000000f7800d01c80007e
:10072000620060000000e000010032009a23a9008e
:10073000d01c8000640060000000e0000100320076
:100740009a43a9009020a9000080fa004f00780089
:1007500000400600809fbe000000fa00c133800008
:1007600000002800008060000000e0000b003a005c
:1007700016c8bf000080fb0000f0a7000000ea00e0
:100780000000ea004f00de00004078000004a200f4
:100790000080fb000040780016e8b7008a80a900be
:1007a0000080fa004f00be00004006000040da0062
:1007b0000000fe00000005006022b80006022000d4
:1007c0000000d0008180d2000482d2008582d20055
:1007d0000000a0000202520083825a000300310090
:1007e0000202420083824a000000a1000603e900e1
:1007f000f3ff3a00000006000000fa00688157008d
:10080000cfb89700cc0307000080fa000000060074
:10081000f0010700480207007c020700f802070009
:10082000200307001c040700c7033700881f780057
:10083000010478008800780005000700904f14003c
:10084000010032000000eb004f04780000000600b9
:10085000881f7800000478008180fb000a003a00bd
:100860000800780031000700000044002200370033
:100870001804e000200032000804e8001081fb00aa
:10088000810f51001c003200080078000808a30006
:10089000f7ff3a0014102000048ab900080178001c
:1008a00038007800f5ef2f00808242008081ea0056
:1008b00083826200030828008382620007003a00f6
:1008c00000006a00f5ef2f00808242000080ea00fd
:1008d0000080620083016000f0ff320002007800b7
:1008e0001204e000040032000201e8009081fb00e5
:1008f000818f5100f9ff3a004f0478000000060094
:10090000810178000002780030417800b14f510039
:1009100002003a000204e000f9ff3a009480fb0074
:100920001380fb000080500000000600800078006b
:10093000040037003104e00002003a0000005100da
:1009400000000600010178000108a300f9ff3a0049
:100950008101780031017800f4ef2f00020242009b
:100960000281ea000201620004082800040161001b
:10097000f7ff320083007800010178003104e000c5
:10098000fdff3a00000051000000060011429000f7
:100990000482fb009180fb00c808dd000482700027
:1009a00080007800d181fb001081fb004811dd0040
:1009b00003017100030037004811dd001180fb00c6
:1009c00002017000010078003104e00004003200f0
:1009d000840f5100f8ff3a000000e9000000060013
:1009e00000000500114390008683fb0006002000f4
:1009f0001181fb008001eb00c811dd000200200026
:100a00000203730083837300214190004811dd00cd
:100a10008001eb0002037300838373008080e80091
:100a2000104190008281fb00020020001082fb0038
:100a30008002eb00c822dd000400200004017100e8
:100a4000858171001182fb004822dd008002eb00ed
:100a50000401710085817100080037001182fb00dc
:100a60008002eb0004027100858271004829dd00dc
:100a7000c821de00830171004821dd0001007800fb
:100a80003104e00005003200860f5100878f5900c5
:100a9000f2ff3a000080e9000000060000000500b7
:100aa000314190000281fb008001eb001183fb00cb
:100ab0008003eb00c833dd00060020000603710050
:100ac00087837100114190008281fb0002002000a9
:100ad0000203730083837300214190004811dd00fd
:100ae0008001eb000203730083837300e300400086
:100af0001182fb008002eb001081fb008001eb0003
:100b0000c811dd0002002000020172008381720022
:100b1000104290008482fb00040020000401710058
:100b200085817100204290004822dd008002eb00a8
:100b300006003700481add00c812de008502720088
:100b40004812dd001181fb008001eb000201720000
:100b500083817200010078003104e000050032005a
:100b6000860f5100878f5900f2ff3a006300500052
:100b700000000600000005002802fa00889fbe0061
:100b80008a9fbe008c9fbe0000047800810578001b
:100b90000f000900001feb000e02b1000b017800ee
:100ba000880078008004eb000d0037000080fb0017
:100bb000c401de008381410003024700ef026000b0
:100bc000160020008532dd00ee817900038a720074
:100bd000868444000000400000004700091098008f
:100be000324078000004e00005003a001a002000be
:100bf0000a0078000001eb008081eb00190037004b
:100c00003104e000e9ff3a00a2003700038245000a
:100c1000e44278006bc2780084cf520005003a00ad
:100c20008a0f50000c0032000000e80082007800bb
:100c30000b00370084cf52000200360003855000bd
:100c4000060037008200e800820178001a002000c8
:100c50000a0078000200370000057800100020002c
:100c60000101780082004000898f5000e7ff3900c1
:100c700011002000010078000002eb008086eb00ec
:100c8000160037008d82450065437800eb427900fd
:100c9000854f530005003a00810f50000c003200d0
:100ca0000000e800040178000b003700854f530076
:100cb000020031008d005100060037000401e800f9
:100cc000840678001100200001007800020037003f
:100cd000800078001000200002027800040140002b
:100ce000890f5100e7ff39000d01e8000300e8001b
:100cf000800f510002003600010578000100370026
:100d0000830678000d02e8008a804500040178001f
:100d10000b00780034179a00690507003e12920014
:100d20000000e000080032000905e9000d0555004b
:100d30008d0f5500010031000d0578000a05e8000f
:100d40008002eb00010037008a825400880178009d
:100d50000006eb0008805100890f5000160031009a
:100d600009037800f603b300060178008000eb0069
:100d70000300780003179a0034179a0015179a0099
:100d800026179a001e0507008e1192003e1292004f
:100d90009e1292002e1392000000e0000500320027
:100da00088005000898f50003a0039008001780097
:100db00001003700868141008900440071f89700e6
:100dc0000080fb006f01600017002000823bdd0007
:100dd0004401de00020141006e03790006816300d8
:100de0000d0032000000400000004700001090009d
:100df000008054000a0032000500e00015003200b7
:100e00000c00e000130032008a0f50001100310086
:100e10000a8054000f00370001047800ccff37002f
:100e20000c007800840f56000300310004007800a5
:100e3000010037000000e800eb4078000104e0000a
:100e4000060032006841780082cf5000f9ff32007e
:100e50000d00500000044400bdff37000d00780075
:100e60008000e8008c8f5000080036006b4178004d
:100e7000e84078000000e900814f5100f8ff32009f
:100e80000a04440005067800b2ff37000800780025
:100e9000010037000000eb004f06be004f05be000a
:100ea0004f04be000080fa0000000600881f780092
:100eb00001047800984078000104e0002600320028
:100ec0008100fb0059fe07000000e0002200320014
:100ed000984090000104e0001f0032009040900014
:100ee0000104e0001b003200a84090000104e00073
:100ef00003003a0088007800a4fe070016003700bf
:100f0000a04090000104e00012003200b8409000c0
:100f10000104e00003003a0088007800b1fe0700f9
:100f20000d003700b04090000104e00009003200dd
:100f3000c84090000104e00003003a0088007800f7
:100f4000d7fe070004003700880078000aff07007a
:100f5000010037000000eb004f047800000006009d
:100f6000889fbe000004be000800e00003003a00b5
:100f7000284a80000800e000130032000800be008c
:100f80007c050700000444001804e00004003a0057
:100f90000000eb00204a8800000478000a003700b7
:100fa0000800be003f05070000004400204a8800fa
:100fb0001004e000020032000058eb00010037008e
:100fc0000000eb00204a8800080078004f04be00b3
:100fd00000000600ec874700889fbe008a9fbe0085
:100fe0008c9fbe008e1f78000006780001047800f8
:100ff000180790002805900098067800cdb79f004c
:10100000b80590003202be002203be000400be00fc
:101010000601be004f18de006011b8008000eb0032
:10102000d0b79f00e1b79f00f2b79f0083bf9f003a
:10103000800478000900e000060032006000b8007b
:101040006011b80004025000858258000603590060
:10105000878359000e00e000020035000d10a1004a
:10106000cdb79f000900e00005003a004fb097009f
:101070000028a30002003a000038a300020032005a
:101080008a00e900010037008a007800f8815700e3
:10109000a200200008007800860007000900e00098
:1010a00003003a00cfb097000128a30008003200e7
:1010b0000000e90000814500b1c2b3000900e00072
:1010c00001003200d1c2b3000149780005003700a9
:1010d0000138a300030032000000e90001c2b300a0
:1010e00081757800480190000201e900000151007b
:1010f000808045004fb297008a0178000c0078008c
:10110000300207009c0090000188a3000400320018
:1011100098009000810f500001003d000100780010
:101120004f0778004f06be004f05be004f04be00bb
:10113000cf00b100000006000200fa00889fbe0048
:101140008a9fbe00800578000104780002007800c4
:10115000180190002805900098007800b1bf9f000a
:10116000b80490000200e000020035000110a10068
:10117000b1bf9f00ea815700820020008a007800fa
:101180003002be002003be000800780049000700be
:101190003fb99700f0006100030032000000e90051
:1011a00001c3b300817478003fb99700e800610083
:1011b000030032000000e90001c2b300817478002e
:1011c000480190000201e9000001510080804400c4
:1011d0003fba97008a0178000b007800f9010700f8
:1011e0009b0090000188a30004003200980090004a
:1011f000810f500001003d00010078004f05be0046
:101200004f04be000080fa0000000600ea87470095
:10121000889fbe008a9fbe008e1f78000004780061
:10122000030078007287570084e2260055c7260025
:10123000049fbe00c3962200030f78006c875700fe
:10124000004feb0011059000a1049000910578007b
:101250000200e000020032000207780001003700bf
:10126000728757000000e00002003a000e0078008c
:10127000aefd07000a00e000030035008a0f5000b1
:10128000010036000a0078000b027800890178001e
:10129000000178008e00780008007800c90107007e
:1012a0004f0778004f05be004f04be00af00b100ed
:1012b00000000600f4874700889fbe008a9fbe009a
:1012c0008c9fbe008e1f78000605be000404be0081
:1012d00081bf9f0082b79f00f3b79f00b0009000ce
:1012e000e1b79f001301780092b79f00900690002d
:1012f000400090000000e900000678000d00e000ca
:1013000001003d001d0020008040eb00efb1970080
:10131000817178001e0020001f0037000c06e900d4
:101320000fb09700cf80de006109b900a0b79f0021
:10133000b1b79f00c2b79f00d3b79f000203be00a2
:101340000002be000800be000a01be00f60507004c
:10135000000778000e4078000043b000efb097001f
:1013600080707e008d06e9000fb997000201e90048
:1013700082bf9f002fb29700bfb297004fb3970074
:10138000dfb397000800be000a01be00df050700ba
:101390000205be000004be000c00e0000d00340099
:1013a000e00f5400e08f5c00e00f5d00e08f5d0017
:1013b000daff3a000d00e000d8ff3c008fb997003b
:1013c0000300e000030034001fb097000018a300e2
:1013d000d2ff3a000e00e00002003a00ffb0970092
:1013e0001140a1000c0078004f0778004f06be00a6
:1013f0004f05be004f04be004f01b10000000600c3
:101400000200fa00889fbe008a9fbe000005780097
:10141000010478000200780018019000a8049000f0
:1014200098007800b1bf9f00b80590000200e0006e
:10143000020035000110a100b1bf9f00ea815700f2
:10144000a2002000890078003002be002003be0008
:101450000800780097ff0700480190000201e900aa
:1014600000015100808045003fba97008901780053
:101470000a007800530107009a0090000188a30039
:101480000400320098009000810f500001003d00e0
:10149000010078004f05be004f04be000080fa0036
:1014a00000000600fa874700889fbe008a9fbe00a2
:1014b0008c9fbe008e1f78008004780001047800a5
:1014c0008205780018019000280590001807780020
:1014d000b80090000200e000020035000e10a100ec
:1014e000010037001200200070006700e0b79f0085
:1014f000090032003b02be002b03be00e00f520089
:10150000e08f5a00e00f5b00e08f5b0002003200ca
:101510008a86e900010037008a067800e802670041
:10152000f5b79f00010032008d06e9003b02be00c6
:101530002b03be00e4af9f00f5af9f0086b79f006e
:1015400097b79f00480690000c06e9000040eb00aa
:1015500080707e00efb297007fb297008903780019
:1015600081047800d8af9f00020478008bbf9f00f1
:101570008a057800034578002a0037000c06e90048
:101580006fab97006f006300e90f500002003c0052
:101590000003b000010037007005b0000a03fb0033
:1015a0001604b100f90f53000c003e000003780050
:1015b0000650a0001606b100f90f530007003e00c8
:1015c000b4b79f00a5b79f00c7b79f0023040700cb
:1015d000cfb39700afb297003fb2970080747e0000
:1015e0000804e9008d06e9006fa89700ffa897009e
:1015f0000fb197009fb19700460020008301d100f2
:101600000281d3008180d3000080d3000603e9006b
:10161000faff3a00e0af9f00f1af9f0082b79f0052
:1016200093b79f00e10f56000f0034006fa897009a
:10163000ffa897000fb197009fb19700e00f5000ef
:10164000e08f5800e00f5900e08f5900cbff3a00bf
:101650000800e000c9ff3c000d00e000020034007b
:101660000e18a300c5ff3a0089007800f4b79f0068
:10167000870478005fac97008a4178000b057800fa
:101680008fbd97000500e000100032003b02be0055
:101690002b03be00e4af9f00f5af9f0086b79f000d
:1016a00097b79f00e00f5200e08f5a00e00f5b00f9
:1016b000e08f5b00050032000c06e90083707e00bd
:1016c0000c06e90000c3b30080707e00ffb29700f3
:1016d0000500e000030032000c06e90000c2b30080
:1016e00080707e00480190000201e9000c01510069
:1016f0008c8040000e0278008a0178000900780092
:10170000b0000700990090000188a3000400320097
:1017100098009000810f500001003d00010078000a
:101720004f0778004f06be004f05be004f04be00b5
:10173000af01b100000006008201780001017800cd
:10174000f1ff2700cc03370084082000848f50006d
:101750001d0032000d003c0014082000848f500052
:101760002700320002003c0004082000040037007b
:1017700024082000848f50003400320044082000e8
:10178000848f500043003a0036003700040a2000de
:10179000848f50002700320004003c000409200020
:1017a000848f50003b003a0028003700020c2000d4
:1017b000828f50002f003200020f2000828f5000d5
:1017c00034003a002b0037009380e9000200e0006b
:1017d00005003200810978001102fb00cfa2de0073
:1017e000612bb90028003700810978001142780088
:1017f0000482fb008002eb006033b8002200370057
:1018000013027800e40052000200e00005003200fc
:10181000810978001102be004fabde00860378001c
:1018200019003700810978001102be006033b8004a
:10183000150037009380e9008109780011027800d3
:10184000cfa2de00612bb9000f00370093027800b1
:10185000e8805200810978003102be002103be00f9
:10186000090037009380e9000200e0000200320026
:10187000f1ff37009380e9008109780011027800b8
:101880008002eb006033b8000498be000690be00f2
:10189000100005000000050044082000848f50005f
:1018a0002500320008003c0014082000848f5000fe
:1018b0001400320024082000848f500024003200dd
:1018c000040820000c00370004092000848f500019
:1018d0001f00320004003c0084082000848f500068
:1018e00024003a000e003700040a2000848f5000c4
:1018f00011003200040c2000848f50001d003a00bb
:101900000d0037009380e90081097800910078008c
:1019100001087800cf91de008288be0014003700f5
:101920009380e9008109780091007800010878002f
:10193000824878000e0037009380e9008109780022
:1019400091007800010878008208780008003700cc
:101950009380e900810978009100780001087800ff
:101960006112b900612bb9008498be008690be0058
:101970001000050000000500889fbe0000047800ec
:101980004800900082047800808f540001003600e7
:101990008004780009017800580090005602070082
:1019a000580090000900400050049800c8009000c2
:1019b00089845000490498000048eb004f04be00a1
:1019c00000000600f2874700889fbe008a9fbe0085
:1019d0008c9fbe008e1f780080047800010578007f
:1019e00002047800830578006107620002003a0073
:1019f0008b0f540008003900080178008a00780035
:101a000009007800dcff07008b0f5400020039004a
:101a1000880578001e003700088655000c01780004
:101a2000f00f5600010036000201200001022000e4
:101a30007e805700370207008c06780005003700cb
:101a400002012000fe80570009007800caff07004d
:101a5000f0865600ef8f5600f9ff3e004461de002d
:101a600000ff2f000091b90002014600fe805700e0
:101a700009007800c0ff07000e00e00004003a00f3
:101a8000080178008a00780009007800baff070092
:101a90000b0078004f0778004f06be004f05be00d0
:101aa0004f04be002f01b100000006000000050039
:101ab0000000050000000500000178000040eb0078
:101ac0008080fb0081804000e392200063c27800a8
:101ad0000404e00003003a00f092200060c07800a7
:101ae0000000060092017800934f520004003a0073
:101af000f092200060c078000309e8000100370080
:101b00000040e800ea4f5000edff360000000600fc
:101b1000f6874700889fbe008a9fbe008c9fbe004c
:101b20008e1f780000057800010478008305780096
:101b3000040678000000eb00c0b79f008080eb0037
:101b4000d1b79f00e0b79f00f2b79f0000082000c8
:101b500080bf9f0098007800010078008004eb00af
:101b6000010037008904e800304178000204e000f9
:101b70000300320053c2b300834f5100f9ff3a0013
:101b80000900e00004003200090178000a00780032
:101b900079ff0700188c44001807780050c2b30082
:101ba0009e4f10003f013a000e07e8000e0c78002f
:101bb00010003700cfb097000100a0000b003700e5
:101bc000cfb097000110a00008003700cfb09700f9
:101bd0000120a00005003700cfb097000130a00021
:101be00002003700cfb097000140a000c1b79f00ae
:101bf000000ce8001800780090407800b2c2b300f2
:101c000082cf5000f1ff320007003c0002c2b30057
:101c100082cf5000f0ff320032c2b30082cf5000ba
:101c200007003a00efff3700d2c2b30082cf500066
:101c3000e0ff320002c3b30082cf5000e0ff320069
:101c4000a2c2b30082cf50000d003a00000ce800a1
:101c50001c80e900000e780010007800e0b79f00bb
:101c60000000e0000f003d00cfb097000100a2008f
:101c7000c1b79f000000ea00e0b79f0009003700ed
:101c800039010700e0b79f0001003700000ce800b1
:101c9000180078009000fb000103b100e98f5000ac
:101ca000faff36004fb097000008a3000200320090
:101cb0000010a100c0b79f0018007800e1c2b30077
:101cc00090cf100016003a008000eb00d1b79f00c3
:101cd0000000e800000c7800a1c2b30090cf100013
:101ce00006003a00000ce8001c80e900000e7800b5
:101cf00010007800d0b79f00090037001a010700d4
:101d0000d0b79f0001003700000ce80018007800f1
:101d10009000fb000103b100e98f5000faff36008c
:101d20000800780064ff07008046780018007800fb
:101d30001000fb004202070091062000810f5000b6
:101d40003800320012003c0041062000810f500094
:101d5000340032000a003c0011062000810f5000c0
:101d60002000320031062000810f5000a000320018
:101d700051022000810f5000bc003a00b40037002f
:101d800071062000810f5000b8003c008800370029
:101d900001072000810f50005c00320007003c006a
:101da000e1062000810f50007a003200f106200089
:101db000810f5000ad003a00390037005107200074
:101dc000810f50002700320081072000810f500052
:101dd0004200320031072000810f5000a3003a007a
:101de0008f0037008d80fb000c01780000fe2f0073
:101df0000f004000450207000000e000a80032008c
:101e000018007800000ce8009041780002fe2f00d6
:101e10000f014100f88057000a00780024ff0700f6
:101e20000e0037008d80fb008c017800120020002e
:101e300000fe2f000f00400043fe07000000e000fe
:101e400097003200180ce80002fe2f000f0141003d
:101e5000f88057000a0078005efc07008084440088
:101e6000900037008d80fb008c0178000001eb00b2
:101e700000fe2f000f00400033fe07000000e000ce
:101e800087003200180ce80002fe2f000f0141000d
:101e9000f88057000a00780059fd0700efff37006f
:101ea0008d80fb008c0178000001eb0000fe2f000c
:101eb0000f00400024fe07000000e0007800320020
:101ec000180ce80002fe2f000f014100f8805700b7
:101ed0000a00780098fc0700e0ff37008d80fb00c7
:101ee0008c0178000001eb0000fe2f000f00400085
:101ef00015fe07000000e0006900320018007800bd
:101f0000000ce800904178001c0037008c0178003c
:101f10000001eb00010f200000fe2f000f00400029
:101f200009fe07000000e0005d003200180ce80028
:101f30000fb097009fb097002fb19700bfb19700e7
:101f4000e00f5000e08f5800e00f5900e08f59007b
:101f500009003a00cfb597006fb497006092200057
:101f600072fa07000b0278008801780000017800ff
:101f7000619220004700370083c7b30002fe2f00a4
:101f80000f014100f88057000a00780045fd070066
:101f9000b2ff37000b8144008d80fb008c0178007c
:101fa00000fe2f000f0040003bfe07003c00370002
:101fb0008d80fb000c01780000fe2f000f00400018
:101fc000d20107000000e000350032001800780060
:101fd000000ce8009041780002fe2f000f01410044
:101fe000f88057000a007800b1fe07009bff370019
:101ff00000c8b30080cf560029003a00180ce80052
:102000001c80e900000e780010407800e0df9f009f
:1020100013002000e2fd2f000f01410008003700ef
:1020200000c8b30080cf56001d003a00180ce8002d
:102030001c80e900000e78008001eb0010017800a0
:10204000f88057000a00780070fc070083ff370013
:1020500000c8b30080cf560011003a00180ce80009
:102060004fb29700efb19700080037000e0c7800d0
:102070000000eb00c0b79f00e0b79f000080eb00be
:10208000d0b79f000002eb0084017800120020000e
:10209000c19220000a0078004afe07006fff370057
:1020a000180ce800090078004f0778004f06be00c2
:1020b0004f05be004f04be006f01b10000000600d6
:1020c0008200fa00889fbe008a1f78000005780011
:1020d00082047800c13f9f000004eb00100037002d
:1020e0000902780088017800a2f72f000f01410053
:1020f00081f72f008f8040000a00780084fe0700df
:1021000008004000880f500004003d00b00420008b
:10211000304a88000084eb00040037000004780097
:102120004f3897001004e000edff3a0008007800f7
:102130004f0578004f04be000080fa000000060042
:10214000800078001000200002022000828f5000e2
:1021500004003200e9805000e48f50000100360096
:102160000000eb0000000600889fbe008a1f780078
:10217000000578000a047800984478000805e80013
:102180000900fb00eeff07000000e000f9ff3a0045
:10219000b0c2b30080cf540005003200d0c2b300fb
:1021a0008000eb0080cf540005003a0002003700a9
:1021b0008000eb0001003700110020000804e80057
:1021c0000000eb00030037006a02b9000200520071
:1021d0000003b0003801fb0003fd2f0082814100a5
:1021e000e98f5100f8ff36000100e00001003a00dd
:1021f0000000ea004f0578004f04be000000060012
:102200008180fb00010037000201e90080017800b5
:102210000008a300060032000200e00023003200a4
:102220003082fb00810f5200f7ff3a0003003700b5
:102230000000eb000200e0001e0032001380fb00f3
:10224000810f50001c00320014102000048ab900d5
:1022500084027800010037000281e9000300780061
:10226000e10f51000a00360033826a00f6ef2f00ba
:10227000040343000482ea00040263000608280005
:1022800006026200f4ff3200010037000201e9009b
:10229000800178000200e000050032003082fb007f
:1022a000810f5200f9ff3a000300370000000500db
:1022b0000000eb00000006000300780000000600ac
:1022c000010037000201e9000200e00005003200d1
:1022d00030427800b1417800834f5200f9ff32005c
:1022e00001003700000005000480fb008381fb0033
:1022f0000300500000000600800178000200370053
:10230000b15978000201e9000200e000fcff3a0048
:1023100000000600889fbe008a9fbe0080047800ef
:102320000200e0005b00320001407800814c780040
:1023300082814400f1f99f00e20f51005500360000
:1023400091449800a1449800e1f99f00d1f99f00c1
:10235000e60f51004f003600b1449800c1f99f00cc
:10236000e80f51004b0036000905ea0063056500df
:102370000a8444000a055100c1ff2f0001056500d1
:102380000080fb008000eb001210200013102000e2
:102390003f010700008cbe000a01440060b99f00a5
:1023a00071b99f00e80f55003a00360020049800ec
:1023b00031049800400498005104980020b99f000f
:1023c00031b99f0040b99f0051b99f00f80f5500e7
:1023d000300036006004980071049800000c9800ea
:1023e000110c9800200c9800310c9800400c9800bb
:1023f000510c980020b19f0031b19f0040b19f0067
:1024000051b19f0060b19f0071b19f0000b99f0062
:1024100011b99f0064016400780141000204440086
:10242000020555006011b8000203be000002be00a4
:102430000403be006022b8000000720081807200b8
:10244000020173008381730010003700009cbe00fe
:102450000294be0040049800510498006204980061
:1024600073049800000c9800110c9800220c98003e
:10247000330c9800400c9800510c9800620c9800a6
:10248000730c98000a02b1000802b000ff0f55005b
:10249000eeff3e00090078004f05be004f04be006d
:1024a000000006002000fa00889fbe000004be0065
:1024b000994078000104e0000300320019409000c8
:1024c0000004e00004003a008100fb0008007800ee
:1024d000dff8070023003700020220008000eb0035
:1024e0000e0078008bff0700194078000004e00020
:1024f00002003a00880078000c0037008904e800e8
:102500000080fb00c400de006f00600012002000ad
:102510000010dd00818040006e81780000007100b5
:1025200000b77800f0ff3a00f2ff370001007800b2
:10253000114178000204e0000a0032008100e80046
:102540000281fb00ef016100140020000322dd0086
:102550004411de0002014100ee0179000301620036
:10256000f2ff3200080050004f04be000080fa0065
:10257000000006002000fa000f000900001feb0019
:102580000e02b100914178000001eb000304e0006d
:1025900028003200114190000204e00005003a00da
:1025a0008000780001017800b1cf1100fdff3200fa
:1025b0001f003700114178000204e00002003a00d9
:1025c000800078000c0037008100e8000281fb00e9
:1025d000c411de006f016100140020000221dd0043
:1025e000838141006e8279000201720002b7790096
:1025f000f0ff3a00f2ff37000101780091417800c6
:102600000304e0000a0032008100e8008381fb003f
:102610006f82610015002000842add00c419de00ed
:10262000838141006e82790084816200f2ff3a006a
:1026300000015100020078000080fa00000006004e
:10264000f1fb2f0080804000f98f500001003e0018
:102650000050a00000000600f9ff3700f1f92f003c
:1026600080804000f98f500001003e00f005b2006c
:1026700000000600f9ff3700f28747008e1f780040
:1026800002027800030178000000e000020032003e
:102690000007780001003700728757008002eb00c6
:1026a0000100e000010032008102e9007080570063
:1026b000060009000018eb000080eb0080bf9f00bf
:1026c0002310200093bf9f00aebf9f00b1bf9f00ab
:1026d000c5bf9f000100e00003003d00b1042000e1
:1026e000314a880006003700004feb00eebf9f0024
:1026f000debf9f0084007800708057002200070032
:102700004f0778002f01b10000000600881f7800f5
:102710000004780000082000808f5000170035006a
:1027200010082000808f50000b003400300820007b
:10273000808f500011003a009200780068805000ad
:10274000000978003002be002003be00049cbe00d9
:102750000694be00070037009202780064805200a1
:10276000000978001000be0015000700009cbe00a4
:102770000294be0010002000010037000000eb00b2
:102780004f047800000006000200fa00881f78005d
:1027900000047800e2bf9f006481570008007800c1
:1027a00047fe0700980090000148a3000100320096
:1027b0000080eb004f0478000080fa000000060063
:1027c000810378001d0007000001be006000b80012
:1027d0000478a30013003a006220e10015003e00d7
:1027e0000d0039008301d1000281d3008180d30024
:1027f0008301d1000281d3008180d3008301d10005
:102800000281d3008180d3000538b000c42add00e6
:10281000f300b2008381720007f0a70003f0a0006c
:102820000000060083ff2700020020006110b900ad
:10283000f9ff370003ff2700f7ff3700c70ade0064
:10284000f107b200f50fb20008003200e1cf4200fc
:10285000020032000170a00024000500810f70000a
:10286000010032000408050044000500810f7000db
:1028700002003a00140005008502e9000000400053
:1028800081c04800fcff3b000170a000240005004f
:10289000020ab900001bb9000200b8008100420022
:1028a0008100430000000600889fbe008a9fbe0092
:1028b00030044200b0844a0030054b0090854b0044
:1028c0006000b1000898be000a90be000440e1001c
:1028d00005c8e10006d0e10007d8e10002003100a0
:1028e000680040001008e8004f05be004f04be001d
:1028f00000000600889fbe008a9fbe003004be0014
:102900002005be000418540005985c0006185d0000
:1029100007985d00110020000440e10005c8e100b7
:1029200006d0e10007d8e100010039008000eb008b
:10293000108810004f05be004f04be0000000600c6
:102940001200fa00889fbe008a9fbe008c9fbe00c6
:10295000e0b79f00f1b79f0082bf9f0093bf9f0029
:102960000605be000404be000000eb00d0b79f00c7
:10297000c0b79f00b0b79f00a0b79f0090b79f005f
:10298000000678005fb19700cfb097008201410048
:102990003fb097000200e00004003d003700070050
:1029a0007e805700c0ff0700030037003300070098
:1029b0007e805700cfff0700dfb697000d00e000d4
:1029c0000c0035006fb29700ffb297000fbb970065
:1029d0009fbb970010002000010020006011b8008c
:1029e000000272008182720002037300838373000d
:1029f0001b0007000c06e80001042000810f5600b0
:102a0000e0ff3a000d00e00004003d000802be00b7
:102a10000a03be007e805700a3ff07005fa897004f
:102a20000000e00005003a001fb29700afb2970027
:102a30003fb39700cfb39700090007006fb097002e
:102a4000ffb097000fb997009fb997004f06be00df
:102a50004f05be004f04be000080fa0000000600d3
:102a60000100070000000600a4b79f00b5b79f0053
:102a7000c6b79f00d7b79f00000006004f09de00d1
:102a800082817100b3b79f004f01de00818040005a
:102a900082807000a1b79f008fb097004f09de00c1
:102aa000000040000200700090b79f007fa89700d0
:102ab0004f01de00818040008280700081b79f005e
:102ac0000d0007004f3ade000000400004007000d7
:102ad000f0af9f00080007000402420085824a0010
:102ae00006034b0087834b00dfff07000802be0090
:102af0000a03be00000006002fb29700bfb2970085
:102b00004fb39700dfb3970000000600881f7800de
:102b100018002000881f780089ff07008f87e900d0
:102b20004f04780000000600801feb0084ff0700c0
:102b30008f87e90000000600889fbe008a9fbe00c4
:102b4000e00f5000e08f5800e00f5900e08f59006f
:102b50000c003d006044b8006055b800000054000f
:102b600081805c0002015d0083815d00180020000f
:102b70001500070008003d00180007000004eb00e6
:102b8000050037000004eb000f00070002003d00c5
:102b90001200070018002000dcff07000800e0001a
:102ba000060032006022b8006033b8000000520016
:102bb00081805a0002015b0083815b004f05be00eb
:102bc0004f04be0000000600e00f5200e08f5a00e4
:102bd000e00f5b00e08f5b00000006006044b8007f
:102be0006055b8000402540085825c0006035d0055
:102bf00087835d0000000600889fbe008a9fbe009c
:102c00008c1f7800e00f5000e08f5800e00f590053
:102c1000e08f59000d003d006044b8006055b800d9
:102c20000000540081805c0002015d0083815d0032
:102c30001c0020000820e10009a8e1000ab0e10022
:102c40000bb8e1000d003d00080037000006eb0066
:102c5000e00f5200e08f5a00e00f5b00e08f5b0056
:102c600006003d006044b8006055b80004025400fe
:102c700085825c0006035d0087835d00aaff070074
:102c80000c00e000060032006022b8006033b8009b
:102c90000000520081805a0002015b0083815b00ca
:102ca0004f0678004f05be004f04be00000006002e
:020000040000fa
:102cb000415400000d0a000000410000542b0000a8
:102cc00052530000540d00000a000000415400005f
:102cd0002b4700004d5200000d0a0000004100008b
:102ce000542b0000435700004d4f000044450000a6
:102cf0003d3100000d0a000000410000542b00008f
:102d0000435700004a410000503d0000226500008a
:102d100074660000626c00002e6e00006574000096
:102d2000222c0000222200000d0a000000410000b9
:102d3000542b00004349000046530000520d000090
:102d40000a000000415400002b43000049500000dd
:102d50004d550000583d0000300d00000a000000f5
:102d6000415400002b430000495000005354000020
:102d700041520000543d0000225400004350000026
:102d8000222c000022310000302e000039390000d2
:102d90002e310000333100002e32000032310000ad
:102da000222c000038300000383400000d0a0000ea
:102db00000410000542b0000434900005053000024
:102dc000454e0000443d0000350d00000a000000a3
:102dd00043460000473a0000002c0000005200006b
:102de000656400000047000072650000656e000029
:102df000004200006c75000065000000596500008d
:102e00006c6c00006f7700000050000075720000cd
:102e1000706c0000650000004f720000616e0000e1
:102e200067650000004200006c610000636b0000f9
:102e3000005700006869000074650000004200004f
:102e4000726f0000776e0000004d00004f560000ca
:102e50002325000073230000257300000d0a0000e5
:102e600000410000542b0000434900005053000073
:102e7000454e0000443d0000256400000d0a00009e
:102e80000072000065640000006c000065660000d0
:102e900074000000726900006768000074000000a0
:102ea00067720000656500006e000000626c000043
:102eb00075650000006200006c610000636b00003b
:102ec000007700006869000074650000006f000072
:102ed000726100006e670000650000007965000007
:102ee0006c6c00006f7700000070000075720000cd
:102ef000706c000065000000627200006f770000d7
:102f00006e0000004f4e0000210d00000a0000007e
:102f100053740000617200007400000053740000dc
:082f20006f70000000000000ca
:020000040000fa
:102f28000000fa009980a9009960a90001088000b2
:102f3800f00b200000816000600420007105200073
:102f48000310200080497800814978008249780080
:102f5800d13e8000f00f2800808060000030200003
:102f680001007000d03e8800a13d800000fc2f00c9
:102f7800008060006000b300a03d88000008800069
:102f8800000178000260a0006004200071052000a4
:102f98000310200080497800814978008249780030
:102fa8009823ef009a23ef009863a80020022000de
:102fb800001d880099e3a8009b43a8009b83a800f4
:102fc8008960a9009960a80061058000f0ff2800c9
:102fd8008080600000002500010070006005880006
:102fe8009020a900a020a80041068000f0f82f003a
:102ff8008080600000052000010070004006880005
:103008000080fa00000006000200fa00000f7800b5
:103018000b00370000000000d11c800000202000b9
:10302800008060000000e000fbff3a001e0078000e
:10303800104078000000fb00e01c88001e0fe8002c
:103048001e007800104078000004e000f1ff3a000c
:103058000080fa00000006000200fa000028ef00d5
:103068000228ef000000eb00000f78000500370091
:10307800608320001e0040008040eb00014878007b
:103088001e0fe800f00720009e007800808f500097
:10309800f7ff34000080fa00000006000800fa007c
:1030a80020079800310798000000eb00000f780017
:1030b8009960a9001100370010408000618320004a
:1030c8006141780022479800104080008000e800a5
:1030d800f007200000806000104088002e0090005b
:1030e8001e004000ae409000014878001e0fe80026
:1030f8002e409000ea4f5000090032003e00900038
:103108000000e9009e0f50000600360001408000d4
:1031180010408000808f5000e7ff3a000100370020
:10312800000000009960a8002e0090001e004000da
:103138008040eb00014878001e0078000080fa000b
:10314800000006000000fa000140800010408000e6
:103158000080680000f0a7000000ea000000ea0014
:103168004f00de00004078000080fa0000000600f2
:103178000c00fa0050079800816e29005e0090004c
:1031880048f70700000f78001e0078000000e000f4
:10319800020032009e007800648f4000d16e290042
:1031a8001e0078006cf707001007980068003700c9
:1031b800d10320001e0090009af507002007980010
:1031c8002e0090000000e0005d0032002e0090000c
:1031d8000000e800104078000004e00058003200c9
:1031e8002e0090008040eb00014878009e0090007f
:1031f800310798002e0090000000e8004007980072
:10320800f16e29003e009000bbf507000000e000c9
:1032180004003a004e0090001040780004e8b7001f
:1032280047003700316f29003e009000b2f50700d3
:103238000000e00004003a004e00900010407800c2
:1032480005e8b7003e003700916f29003e00900066
:10325800a9f507000000e00004003a004e009000c5
:103268001040780006e8b70035003700e16f290004
:103278003e009000a0f507000000e00004003a00be
:103288004e0090001040780007e8b7002c00370087
:10329800517029003e00900097f507000000e000fb
:1032a80004003a004e0090001040780008e8b7008b
:1032b80023003700c17029003e0090008ef50700fa
:1032c8000000e00004003a004e0090001040780032
:1032d80009e8b7001a003700317129003e00900054
:1032e80085f507000000e00004003a004e00900059
:1032f800104078000ae8b7001100370091712900e2
:103308003e0090007cf507000000e00004003a0051
:103318004e009000104078000be8b7000800370016
:10332800f17129003e00900073f507000000e000ed
:1033380003003a004e009000104078000ce8b700f7
:10334800d16e29000000eb0003f707001007980072
:103358001e0090000000e00095ff3a000080fa008f
:1033680000000600a600fa00109798002197980020
:103378000e80e800ae909000811f78009e9090002b
:10338800811f780051722900811f780018f5070005
:10339800e68757000e80e80062f50700000f780006
:1033a800200820000e0040009e1f7800117329009d
:1033b800811f78000ef50700e487570020082000d9
:1033c8000e00400010ff070000202100a107200088
:1033d8003e09070020ff07000e80e8000aff0700eb
:1033e80000202100a1072000380907001aff070064
:1033f8000080fa00000006000000fa00a1e1a90020
:1034080076a6a900010d8000f0fc2f000080600066
:103418000040a000000d88009621ef008111800077
:10342800f03f2e000080600080118800811180002c
:1034380080ff2f00008060006000b30080118800ca
:1034480090118000f001b3009011880032e2a900c9
:10345800a1e1a80080bb2000b0118800f0c32900ba
:10346800e00c8800e00c8000a01188000080fa00c1
:10347800000006000000fa00a0408000e10f5000a4
:103488000a003200e10f500005003900e20f500039
:1034980009003200e30f50000a0032000c00370028
:1034a80080bb2000b0118800090037008057200039
:1034b800b01188000600370080bb2000b0118800da
:1034c80003003700002c2100b01188000000000024
:1034d800a04080000000e80063006000a040880071
:1034e8000080fa00000006000000fa008057200063
:1034f800b01188000080fa00000006000000fa0001
:10350800002c2100b01188000080fa00000006009d
:103518000000fa0080bb2000b01188000080fa008b
:10352800000006000200fa00000f78001e00780074
:103538000000e00002003d000000eb00000f7800f2
:10354800400b20009e007800808f5000020034005d
:10355800400b2000000f78001e0078007400b900ae
:10356800800078008057200000804000b01188005b
:103578000080fa00000006000000fa00120128008e
:103588008000eb0000012000f9060700006a28000f
:1035980011002000cd080700024320008000eb0046
:1035a80000012000f2060700006a28001100200030
:1035b800c60807000080fa00000006000600fa00ae
:1035c8004047980070002000000f78001000370076
:1035d8004e4090008080fb001e0078000088de00ce
:1035e80061006000004078000004e0000200320042
:1035f80000cfb3000100370000ccb300204798008b
:103608002e4090000080fb00bb0707001e0fe9005a
:103618001e0078000000e000edff3d000080fa0089
:10362800000006000400fa00004f780011479800d7
:1036380022479800f5e3a90000322000010020008d
:10364800a2080700f5e3a8001e409000dbff070072
:103658001e407800d9ff07002e409000d7ff0700d2
:10366800f5e3a900003220000100200097080700b8
:10367800f5e3a8000080fa00000006007800fa00d0
:103688006000b800008fbe006000b80020079800f6
:10369800310798006000b80040079800510798006b
:1036a8000000eb00600798002f0037005100200051
:1036b8000001200087060700700798007e00900030
:1036c800c800dd004800de00008070008000eb00cc
:1036d8001e0f40005e974800610020000001200096
:1036e8007c060700000f98000e089000c800dd0057
:1036f8004800de00008070008000eb002e01900082
:10370800be01900002004000838048002007980016
:103718003107980071002000000120006d060700a5
:10372800100f98001e089000c800dd004800de0059
:10373800008070008000eb004e019000de019000d8
:103748000200400083804800400798005107980015
:1037580000712200010020005c0807006e00900044
:103768000000e800600798006e009000e40f500029
:10377800ceff34001e00be005200200003002000cf
:103788000bf4070000007800704088002e009000bd
:10379800be009000520020000300200004f407003f
:1037a80000007800804088004e009000de00900005
:1037b8005200200003002000fdf3070000007800fd
:1037c8009040880016c8bf000004e00009003200dd
:1037d80083c12100924080008140800070408000b9
:1037e8000300010000202100a1072000370807007e
:1037f8000b0037007bc6a90000f42100010020005f
:10380800320807000041eb008040eb000040eb006d
:1038180084ff070000f42100010020002b080700a6
:103828000080fa00000006000600fa00000f780089
:103838001107980022079800f0342c009e007800a9
:10384800808f50002c0036009e00900080202500bc
:10385800808f5000280036009e009000f058260007
:10386800808f500024003e00ae009000802025008c
:10387800808f500020003600ae009000f0582600df
:10388800808f50001c003e00608b200010407800a4
:10389800e14f50000c003a0018ff0700009020008c
:1038a800d103200009080700117429005074290069
:1038b800acfe070016ff070000902000d10320008f
:1038c80002080700bf01370007ff0700009020002b
:1038d800d1032000fd07070011742900a0742900f6
:1038e800a0fe07000aff070000902000d103200077
:1038f800f6070700b3013700803222009e007800e7
:10390800808f500030003600702c23009e00780015
:10391800808f50002c003e009e0090008091270070
:10392800808f5000280036009e00900030e9280063
:10393800808f500024003e00ae0090000053270006
:10394800808f500020003600ae009000708b280059
:10395800808f50001c003e00708b200010407800c3
:10396800e14f50000c003a00e4fe070000902000f0
:10397800d1032000d50707000175290050742900dc
:1039880078fe0700e2fe070000902000d103200027
:10399800ce0707008b013700d3fe070000902000f8
:1039a800d1032000c907070001752900a074290068
:1039b8006cfe0700d6fe070000902000d10320000f
:1039c800c20707007f013700409022009e00780060
:1039d800808f50002c00360070a923009e007800cc
:1039e800808f500028003e009e009000003b2b0076
:1039f800808f5000240036009e00900030d12c00ab
:103a0800808f500020003e00ae00900080612f00a3
:103a1800808f50001c003600808b200010407800fa
:103a2800e14f50000c003a00b4fe0700009020005f
:103a3800d1032000a50707006175290050742900eb
:103a480048fe0700b2fe070000902000d1032000c6
:103a58009e0707005b013700a3fe070000902000c7
:103a6800d10320009907070061752900a074290077
:103a78003cfe0700a6fe070000902000d1032000ae
:103a8800920707004f01370080b521009e0078009b
:103a9800808f50001400360070af22009e0078001e
:103aa800808f500010003e009e00900000ee220023
:103ab800808f50000c0036009e00900030072400d4
:103ac800808f500008003e00ae009000c0452400e2
:103ad800808f500004003600ae009000f05e250094
:103ae800808f500018003600c05721009e007800d3
:103af800808f500030003600301322009e0078007e
:103b0800808f50002c003e009e00900080322200e2
:103b1800808f5000280036009e009000f0ed2200b3
:103b2800808f500024003e00ae00900080af22003d
:103b3800808f500020003600ae00900070a923004e
:103b4800808f50001c003e00908b200010407800b1
:103b5800e14f50000c003a0068fe0700009020007a
:103b6800d103200059070700b175290050742900b6
:103b7800fcfd070066fe070000902000d10320002e
:103b8800520707000f01370057fe0700009020007a
:103b9800d10320004d070700b1752900a074290042
:103ba800f0fd07005afe070000902000d103200016
:103bb800460707000301370000232f009e00780006
:103bc800808f5000080036009e00900040bf2f00f4
:103bd800808f500004003600ae00900040bf2f00d8
:103be800808f500014003e00801a26009e00780046
:103bf800808f50002c003600700e28009e00780040
:103c0800808f500028003e009e009000800e280003
:103c1800808f5000240036009e009000f0bd2a00de
:103c2800808f500020003e00ae00900000352c0030
:103c3800808f50001c003600a08b200010407800b8
:103c4800e14f50000c003a002cfe070000902000c5
:103c5800d10320001d0707001176290050742900a0
:103c6800c0fd07002afe070000902000d1032000b5
:103c780016070700d30037001bfe0700009020003e
:103c8800d10320001107070011762900a07429002c
:103c9800b4fd07001efe070000902000d10320009d
:103ca8000a070700c700370080ea2d009e00780049
:103cb800808f50002c0036009e009000407e25002a
:103cc800808f5000280036009e009000b0b6260075
:103cd800808f500024003e00ae00900000e82300d2
:103ce800808f500020003600ae009000b0bc250048
:103cf800808f50001c003e00b08b200010407800e0
:103d0800e14f50000c003a00fcfd07000090200035
:103d1800d1032000ed0607007176290050742900b0
:103d280090fd0700fafd070000902000d103200055
:103d3800e6060700a3003700ebfd0700009020000f
:103d4800d1032000e106070071762900a07429003c
:103d580084fd0700eefd070000902000d10320003d
:103d6800da0607009700370080612f009e00780070
:103d7800808f5000280036009e00900000a02f0081
:103d8800808f500024003600ae009000800e28007e
:103d9800808f500020003600ae009000708529000a
:103da800808f50001c003e00c08b2000104078001f
:103db800e14f50000c003a00d0fd070000902000b1
:103dc800d1032000c1060700e176290050742900bc
:103dd80064fd0700cefd070000902000d1032000fd
:103de800ba06070077003700bffd070000902000e3
:103df800d1032000b5060700e1762900a074290048
:103e080058fd0700c2fd070000902000d1032000e4
:103e1800ae0607006b00370000b82b009e00780044
:103e2800808f50002c0036009e00900080202500d6
:103e3800808f5000280036009e009000b0b6260003
:103e4800808f500024003e00ae0090008091270033
:103e5800808f500020003600ae009000b027290067
:103e6800808f50001c003e00d08b2000104078004e
:103e7800e14f50000c003a00a0fd07000090200020
:103e8800d1032000910607005177290050742900ba
:103e980034fd07009efd070000902000d10320009c
:103ea8008a060700470037008ffd070000902000b2
:103eb800d10320008506070051772900a074290046
:103ec80028fd070092fd070000902000d103200084
:103ed8007e0607003b00370000ee22009e007800b7
:103ee800808f500030003600702624009e00780035
:103ef800808f50002c003e009e009000006b230035
:103f0800808f5000280036009e00900030842400e6
:103f1800808f500024003e00ae00900080262400d0
:103f2800808f500020003600ae009000b0bc250005
:103f3800808f50001c003e00e08b2000104078006d
:103f4800e14f50000c003a006cfd07000090200083
:103f5800d10320005d060700c177290050742900ad
:103f680000fd07006afd070000902000d103200033
:103f780056060700130037005bfd0700009020007d
:103f8800d103200051060700c1772900a074290039
:103f9800f4fc07005efd070000902000d10320001c
:103fa8004a0607000700370000902000d1032000d0
:103fb8004606070056fd070000902000d1032000a8
:103fc800420607000080fa00000006000000fa0020
:103fd8004180200091407800c0c4b30000c0680050
:103fe8000080fb000000e9004f00de000040780080
:103ff800618b200080487800518020009140780033
:10400800c0c4b30000c068000080fb000000e900e5
:104018004f00de0000407800718b20008048780057
:104028006180200091407800c0c4b30000c06800df
:104038000080fb000000e9004f00de00004078002f
:10404800818b200080487800a18020009140780072
:10405800c0c4b30000c068000080fb000000e90095
:104068004f00de0000407800918b200080487800e7
:10407800b180200091407800c0c4b30000c068003f
:104088000080fb000000e9004f00de0000407800df
:10409800a18b200080487800918020009140780012
:1040a800c0c4b30000c068000080fb000000e90045
:1040b8004f00de0000407800b18b20008048780077
:1040c8007180200091407800c0c4b30000c068002f
:1040d8000080fb000000e9004f00de00004078008f
:1040e800c18b2000804878008180200091407800b2
:1040f800c0c4b30000c068000080fb000000e900f5
:104108004f00de0000407800d18b20008048780006
:10411800c180200091407800c0c4b30000c068008e
:104128000080fb000000e9004f00de00004078003e
:10413800e18b2000804878000080fa00000006002b
:104148000000fa00608b20008040eb0001487800f6
:10415800708b20008040eb0001487800808b2000a5
:104168008040eb0001487800908b20008040eb00f5
:1041780001487800a08b20008040eb0001487800bf
:10418800b08b20008040eb0001487800c08b2000f5
:104198008040eb0001487800d08b20008040eb0085
:1041a80001487800e08b20008040eb00014878004f
:1041b800dc050700f0fc070000402200410f20004a
:1041c800c20507008cfc070055fb070000202100f2
:1041d800a1072000bd05070083e0a800000000003b
:1041e8000000000000802400811e2000b7050700a1
:1041f800f040800084fb070000202100a107200078
:10420800b205070094fb0700004180007efb070011
:1042180000402b00414c2000ac0507008efb070036
:104228002041800078fb070000402200410f200059
:10423800a605070088fb07003041800072fb0700d5
:1042480000402200410f2000a005070082fb070064
:10425800404180006cfb070000202100a1072000de
:104268009a0507007cfb07002078290066fb0700f9
:1042780000202100a107200094050700b1fb0700da
:104288000004e0002000320000242400f100200097
:104298008e050700816e29006083200001f3070066
:1042a8000000e0000a003200004080006183200026
:1042b8000041eb008270780060832000acfb0700af
:1042c80042ff070000902000d10320007f0507006f
:1042d8008178290060832000f2f207000000e000e6
:1042e8000200320010c0b30016e8b700e1782900d8
:1042f80060832000ebf207000000e00001003200bc
:104308001668ef0054fb070016c8bf000004e00061
:104318000a00320002c8b30001c8b30000c8b300e5
:10432800c0fc070000f42100010020006705070019
:104338007bc6a800d1fc0700d0ff37007bc6a900c8
:1043480000f4210001002000600507000041eb0097
:104358008040eb000040eb00b2fc070000f42100b5
:104368000100200059050700c4ff37000400fa00c7
:10437800000f7800110798001e0190009e00780039
:104388000000eb00ad0107000080fa000000060005
:104398000400fa00000f7800110798001e01900031
:1043a8009e00780010002000a40107000080fa0099
:1043b800000006000400fa00000f780011079800ba
:1043c8001e0190009e007800200020009b0107003d
:1043d8000080fa00000006000400fa00000f7800d0
:1043e800110798001e0190009e0078003000200000
:1043f800920107000080fa00000006000400fa009d
:10440800000f7800110798001e0190009e007800a8
:1044180040002000890107000080fa000000060023
:104428000400fa002047980010002000000f7800d0
:1044380000468000620060000000e00032003a00a0
:10444800108c2000ae4090000148780000468000a3
:104458000000a10000468800004680000010a0006f
:1044680000468800004680000030a1000046880011
:10447800e000200050468800401f20004046880089
:10448800004680000020a00000468800e05022007e
:10449800704688000000eb00d0468800e0502200fb
:1044a800804688000000eb00e0468800e0502200cb
:1044b800904688000000eb00f0468800e05022009b
:1044c800a04688000000eb000047880080512200c9
:1044d800b04688000000eb0010478800bc010700c8
:1044e80099010700605022006e020700e04d22008b
:1044f80072020700e04d22007602070079010700ea
:104508000000eb00000f78001e0078000080fa0021
:10451800000006000200fa00004f7800108c20000e
:104528001e4878000080fa00000006000200fa0029
:1045380010002000000f7800004680006100600035
:104548000000e0000a003a00004680000010a100c8
:1045580000468800108c200080c0eb0001487800dd
:10456800790107007301070061468000010f780098
:104578001e0078000080fa00000006000200fa0021
:10458800004f78006b0107001e80fb004046880042
:10459800540107000080fa00000006000400fa0039
:1045a800000f780011079800004680006400600042
:1045b8000000e000070032001e0078001046880066
:1045c8009e00900021468800004680000020a1003f
:1045d800004688000080fa00000006000400fa0087
:1045e8002047980010002000000f78000046800047
:1045f800610060000000e00013003a0000468000ff
:104608000000a000004688000000eb00000f7800c2
:104618002e4090000004e00003003200100020004b
:1046280050468800020037002000200050468800cd
:1046380089010700300107000004a2000004e0001f
:10464800010032000d0007001e0078000080fa000b
:10465800000006000000fa0010c0b300dfff0700ea
:104668000080fa00000006000000fa000040eb009d
:10467800daff07000080fa00000006000000fa00d8
:10468800030037000000eb0039010700c9000700ec
:1046980000468000610060000000e000f9ff3a0079
:1046a8000080fa00000006000000fa006701070019
:1046b800004680000000a100004688000000eb00d2
:1046c80060468800e00020000080fa000000060034
:1046d8000000fa00004680000000a10000468800a3
:1046e8000000eb0060468800e00020000080fa002f
:1046f800000006000000fa005b010700100020001f
:104708000080fa00000006000000fa0056010700c9
:10471800200020000080fa00000006000000fa00d7
:1047280051010700100020000080fa000000060078
:104738000000fa00500107000000eb000080fa00ba
:10474800000006000000fa00004680000030a000cb
:1047580000468800108c2000104078000080fb0084
:1047680000004000004078000004a0005b01070042
:10477800500020000080fa00000006000000fa0047
:10478800004680000030a00000468800108c200001
:104798001040780000404000500107003000200021
:1047a8000080fa00000006000000fa0000468000c1
:1047b8000030a100004688003f01070040002000ab
:1047c8000080fa00000006000000fa004901070016
:1047d800500020000080fa00000006000000fa00e7
:1047e80049010700a00020000080fa000000060030
:1047f8000000fa0044010700900020000080fa0041
:10480800000006000000fa00004680000030a10009
:1048180000468800200020006046880091468000fd
:10482800f0468000010001000080e900e10f50001f
:1048380002003e00b9ff070001003700bcff070077
:104848000080fa00000006000000fa000e010700d0
:104858000004e0000e003200a146800000478000fe
:1048680001000100e20f500003003200e30f500086
:1048780003003200040037009eff070016003700cf
:10488800a1ff070014003700a9ff07001200370036
:10489800004680000030a1000046880010468000d5
:1048a800904078000000e800104688000140780039
:1048b8000a010700204680000000e9002046880021
:1048c800204680000000e000020032003000200096
:1048d80001003700600020000080fa000000060098
:1048e8000000fa00881f780018468000f6000700cc
:1048f800004c78000800e800104688002046800038
:104908000000e90020468800204680000000e00002
:1049180003003200f7000700500020000c003700a9
:10492800004680000020a0000046880071468000f4
:10493800d0468000010001000080e900e10f50002e
:1049480002003e00aaff070001003700a3ff07008e
:104958004f0478000080fa00000006000000fa000a
:10496800004680000020a0000046880071468000b4
:10497800d046800001000100e20f50000a00390013
:10498800e30f500003003600e40f5000030032002c
:104998000500370061ff0700040037006f000700bb
:1049a800300020000100370061ff07000080fa0096
:1049b800000006000000fa006300070000468000bf
:1049c800680060000000e00005003200ae0007004b
:1049d8000004e00002003200f00020005046880089
:1049e8005046800080004000608e2000008040001b
:1049f8001000780000000100504688000080fa008e
:104a0800000006000000fa00120107000080fa000a
:104a1800000006000200fa00000f780010002000d5
:104a28000080fa00000006000200fa00000f78007b
:104a3800500020000080fa00000006000600fa007e
:104a4800000f780011079800220798001e009000b8
:104a58000000e0000f0032009e00780067804000f0
:104a680080004000008c2000008040009e009000e4
:104a7800010878009e0078006d80400080004000aa
:104a8800008c200000804000ae00900001087800f3
:104a98000e0037009e0078006780400080004000cc
:104aa800008c200000804000e150220001087800be
:104ab8009e0078006d80400080004000008c20003f
:104ac800008040008000eb00010878000080fa00b8
:104ad800000006000000fa009be4a9000080fa002c
:104ae800000006000000fa009a20a8009a00a8001a
:104af8000080fa00000006000000fa00d0048000e0
:104b0800620060000000e00004003a00d004800069
:104b1800610060000000e000020032001000200088
:104b2800010037000000eb00004078000080fa0028
:104b3800000006000000fa009a20a9009a00a900c7
:104b48000080fa00000006000000fa008a20a90090
:104b58008a00a9000080fa00000006000000fa00a0
:104b68008a20a8008a00a8000080fa000000060039
:104b78000200fa00000f7800500480006200600014
:104b88000000e00010003a0050048000610060005e
:104b98000000e0000c003a00500480006200600051
:104ba8000000e00008003a00500480006100600046
:104bb8000000e00004003a00001920000100200075
:104bc80042030700f4ff37000080fa0000000600e7
:104bd8000000fa00d1248000000028000080600056
:104be8000000e00007003a009e24ef0000002800c3
:104bf800d024880020012000c024880010c0b30001
:104c0800010037000040eb000080fa0000000600b9
:104c18000000fa00d1248000000028000080600015
:104c28000000e00006003a009c24a8009c04a800ac
:104c38009ac4a8009be4a80010c0b3000100370084
:104c48000040eb000080fa00000006000000fa00b7
:104c58000080fa00000006000000fa009a04a8008c
:104c68000080fa00000006000000fa009a24a8005c
:104c78000080fa00000006000000fa009a44a8002c
:104c88000080fa00000006000000fa00f02480000e
:104c98004f00de00004078000080fb0000f0a70015
:104ca8000000ea000000ea004f00de000040780043
:104cb8000080fa00000006000000fa009a64a800cc
:104cc8000080fa00000006000000fa00a02480001e
:104cd800004078000080fa00000006000200fa0098
:104ce800004f78001e80fb00b02488000080fa0086
:104cf800000006000000fa009aa4a9009a84a800ff
:104d08000080fa00000006000000fa009aa4a8003b
:104d18009a84a8000080fa00000006000000fa004b
:104d28009b84a8000080fa00000006000000fa003a
:104d3800f0248000620060000000e00004003a00f7
:104d4800f0248000610060000000e00002003200f2
:104d580010002000010037000000eb000040780040
:104d68000080fa00000006000000fa00f02480002d
:104d78004300de00614060000080fb0000f0a700f7
:104d88000000ea000000ea004f00de000040780062
:104d98000080fa00000006000000fa00f1248000fc
:104da800000220000080600000f0a7000000ea0078
:104db8000000e9004f00de00004078000080fa00a3
:104dc800000006000000fa00f02480004400de0025
:104dd800614060000080fb0000f0a7000000ea00ce
:104de8000000ea004f00de00004078000080fa0072
:104df800000006000000fa00f02480004500de00f4
:104e0800614060000080fb0000f0a7000000ea009d
:104e18000000ea004f00de00004078000080fa0041
:104e2800000006000000fa00f02480004200de00c6
:104e3800614060000080fb0000f0a7000000ea006d
:104e48000000ea004f00de00004078000080fa0011
:104e5800000006000000fa009f44a9000080fa0044
:104e6800000006000000fa009ca4a8000080fa00d8
:104e7800000006000000fa009ca4a9000080fa00c7
:104e8800000006000000fa009cc4a8000080fa0098
:104e9800000006000000fa009cc4a9000080fa0087
:104ea800000006000200fa00000f78009e0078005b
:104eb800514188000080fa00000006000200fa0054
:104ec800000f78009e007800614188000080fa0099
:104ed800000006000200fa00000f78009e0078002b
:104ee800714188000080fa00000006000200fa0004
:104ef800000f7800110020001e007800a7fd0700b1
:104f08008000eb000000eb0018fd070040002000c7
:104f18000080fa00000006000400fa00004f780044
:104f28001147980022479800000000001e407800b2
:104f38003bfd07000000e000fcff32000e80e800a7
:104f480080007800a077220008fd07000e00e80026
:104f58001100200091fd07008000eb0040c12200f5
:104f680014fd0700c0fd0700000000006ffd0700ea
:104f7800e10f5000fdff32000080fa00000006003b
:104f88000600fa00004f78001107980022079800e1
:104f9800000000001e40780021fd07000000e0002e
:104fa800fcff3200ae0090001e0090007bfd070061
:104fb8008000eb0040c12200fefc0700aafd0700ac
:104fc8000000000059fd0700e10f5000fdff32000e
:104fd8000080fa00000006000200fa00000f7800c6
:104fe800110020001e0078006cfd07008000eb0017
:104ff8000000eb00ddfc0700200020000080fa0024
:10500800000006000800fa00604798007147980001
:10501800a0c2b3004047980020002000000f78008d
:1050280019003700000000006e409000fcfc0700eb
:105038000000e000fcff32006400470080007800b8
:10504800007f2200c9fc070067004700110020000c
:1050580052fd07008000eb0040c12200d5fc07008c
:1050680081fd070031fd0700100798001e00900021
:10507800e10f5000fbff32001e0090000000e0002e
:10508800050032001e0fe9001e0078000000e00055
:10509800e4ff3a0001003700000000004e40900095
:1050a8000080fa00000006000200fa00000f7800f5
:1050b800210020001e00780038fd07008000eb006a
:1050c8000000eb00a9fc0700200020000080fa0087
:1050d800000006000400fa002047980031479800b5
:1050e800000000002e409000cdfc07000000e0000a
:1050f800fcff32008e007800808522009bfc0700b0
:10510800630047001100200024fd07008000eb0029
:1051180040c12200a7fc070053fd07000000000063
:1051280002fd0700e10f5000fdff32001e0078006d
:10513800c800dd004800de00008070000080fa0032
:10514800000006000200fa00000f7800210020008d
:105158001e00780011fd07008000eb000000eb0046
:1051680082fc0700400020000080fa0000000600d2
:105178000400fa00004f78001147980012079800c1
:10518800000000001e407800a5fc07000000e000b9
:10519800fcff32000e80e80080007800608a220060
:1051a80072fc07000e00e80011002000fbfc07005d
:1051b8008000eb0040c122007efc07002afd0700aa
:1051c80000000000d9fc0700e10f5000fdff32008d
:1051d8000080fa00000006000200fa00000f7800c4
:1051e8001e007800900078001e00780010009000e3
:1051f800eafc07008000eb000000eb005bfc070006
:10520800200020000080fa00000006000a00fa00d2
:105218004047980051479800320798004307980084
:105228003e00900010079800ce009000010f780013
:10523800000000004e40900079fc07000000e000ec
:10524800fcff32008e007800008f220047fc070028
:105258006500470011002000d0fc07008000eb002b
:1052680040c1220053fc0700fffc070000000000bb
:10527800aefc0700e10f5000fdff32000080fa008d
:10528800000006000600fa00004f78001107980099
:1052980022079800000000001e40780060fc07000c
:1052a8000000e000fcff3200ae0090001e009000fd
:1052b800bafc0700e7fc0700000000009bfc0700a1
:1052c800e10f5000fdff32000080fa0000000600e8
:1052d8000000fa00f623ef00f823ef00fc23ef00ac
:1052e8000424ef000824ef000a24ef000c24ef0048
:1052f8000e24ef0010122800a01f88000080fa007a
:10530800000006000400fa00000f7800110798005a
:1053180000000000e01f8000620060000000e00064
:10532800fcff3a001e007800104078000080fb0067
:105338000020880000000000e11f8000000220001b
:10534800008060000000e000fbff3a0000208000c1
:10535800804078001e009000014878000080fa0024
:10536800000006001800fa00100f9800210f98009e
:10537800320f98000000eb00000f78000000eb00ef
:10538800100798000000eb00700798000000eb0081
:10539800000f980010002000600798001e08900079
:1053a8000000e00005003a000000eb0050079800fc
:1053b800700047002007980004003700ee009000b6
:1053c800510798009e089000210798003e08900019
:1053d8000000e00005003a000000eb0040079800dc
:1053e8006e0047003007980005003700ee00900077
:1053f80041079800be08900031079800000000009f
:10540800e01f8000620060000000e000fcff3a003e
:105418001d003700e01f8000620060000000e0000f
:1054280009003a002e009000104078000080fb0030
:1054380000208800ae0090005e00900000804000d0
:10544800200798001e0fe800e11f800000022000de
:10545800008060000000e0000b003a00002080009f
:10546800804078003e00900001487800be0090001f
:105478004e00900000804000300798001e00900009
:105488000000e800100798002e0890009e007800a1
:10549800808f5000dfff390010003700e11f8000c7
:1054a80000022000008060000000e0000b003a00cd
:1054b80000208000804078003e009000014878007d
:1054c800be0090004e009000008040003007980019
:1054d8001e0090000000e800100798009e00900051
:1054e8002e089000808f5000ecff39001e007800d5
:1054f8000080fa00000006000400fa002047980027
:105508000e80e8008e0078007eff07001e407800bd
:105518000080fa00000006000600fa00000f78007c
:1055280011079800220798002e0190009e00900015
:105538001e0078008bff07000080fa0000000600bc
:105548000000fa00e01f80000080fa00000006005a
:105558000000fa006626ef007a26ef0070012000ae
:1055680010338800f0352b00b03388007426ef0024
:105578008826ef007226ef008626ef006826ef00e7
:105588007c26ef007000200050338800c000230004
:10559800f033880001088000f00b200000816000d3
:1055a8006004200071052000031020008049780065
:1055b8008149780082497800f13e8000f00f280088
:1055c8000080600000b0a000f03e8800f13e80003e
:1055d80000f82f00008060007000b300f03e8800e3
:1055e800c13e8000f00f28008080600000d02000bd
:1055f80001007000c03e8800813c8000f00f2c0044
:105608008080600000f0200001007000803c88006d
:10561800d13e8000f00f280080806000003020001c
:1056280001007000d03e8800a13d800000fc2f00e2
:10563800008060006000b300a03d88000008800082
